:100000009FC00000B8C00000B6C00000B4C000002F
:10001000B2C00000B0C00000AEC00000ACC0000024
:10002000AAC00000A8C00000A6C00000B0C3000025
:10003000A2C00000A0C000009EC000009CC0000044
:100040009AC0000098C0000096C0000094C0000054
:1000500092C0000090C000008EC0000012C10000DD
:100060008AC0000088C0000086C0000084C0000074
:1000700082C0000080C000007EC000007CC0000084
:100080007AC0000078C0000076C0000074C0000094
:1000900072C0000070C000000600FF0901A1010944
:1000A00002150025FF750895328102090315002508
:1000B000FF750895329102C012011001000000087E
:1000C00001060100000001020001090229000101EE
:1000D00000C03209040000020300000009211101E0
:1000E00000012220000705810332000507050203F5
:1000F0003200050403090418034400650061006E22
:10010000002000430061006D006500720061000086
:10011000002C034C005500460041002000470065BC
:10012000006E00650072006900630020004800490D
:100130000044002000440065006D006F00000000D6
:1001400011241FBECFEFD2E0DEBFCDBF11E0A0E093
:10015000B1E0ECE1FFE002C005900D92A030B107E4
:10016000D9F712E0A0E0B1E001C01D92A63EB107B0
:10017000E1F7D6D1D1C644CF9C01DC01AE57BF4FC9
:10018000ED91FC91119741911196FC93EE9380585B
:100190009F4FE817F90711F42D933C939FB7F894FC
:1001A000F901EC57FF4F8081815080839FBF842FDE
:1001B00008958BB180638F7D8BB908958BB1806377
:1001C0008F7E8BB90895BC0120E030E0ABE9B1E04F
:1001D000FB01E20FF31F40818FB7F89490911F024B
:1001E0008FBF9038E1F0E0911B02F0911C02408338
:1001F000E0911B02F0911C02CF01019690931C022A
:1002000080931B028B51924011F4B283A1839FB75C
:10021000F89480911F028F5F80931F029FBF442339
:1002200029F02F5F3F4F2233310591F60895EF9269
:10023000FF920F931F93CF93DF93EC018FB7F89446
:100240009091D8028FBF992311F480E013C0092F39
:10025000923308F001E37E0110E084E592E08CDF48
:10026000F70181937F011F5F1017B8F3C10FD11DF4
:10027000188281E0DF91CF911F910F91FF90EF9055
:1002800008951F920F920FB60F9211242F933F9350
:100290004F935F938F939F93EF93FF939091CE0033
:1002A0009D3011F490E003C09A3009F44AC0809167
:1002B000DD02843009F045C0E0910201F0E0E95C24
:1002C000FE4F9083809102018F5F809302019923FA
:1002D00079F1809102018233A1F52AC08FB7F89499
:1002E0009091D8028FBF903809F1E22FF0E0E95CDD
:1002F000FE4F8081E091D402F091D5028083E0919D
:10030000D402F091D502CF0101969093D50280934B
:10031000D402845D924011F4528341839FB7F894D4
:100320008091D8028F5F8093D8029FBF2F5F03C058
:1003300020E044E552E080910201281778F2109203
:100340000201FF91EF919F918F915F914F913F91AA
:100350002F910F900FBE0F901F9018958FB7F894A4
:1003600090911F028FBF8091C80085FF0CC0992318
:1003700051F08BE991E000DF982F8091C80085FF54
:10038000FCCF9093CE0008958091000190910101DF
:10039000892B81F080910001909101010197909348
:1003A0000101809300018091000190910101892B4E
:1003B00009F45C9AD3CF8091DD028430C9F582E0E4
:1003C0008093E9008091E80082FF13C08091E800EB
:1003D00085FF0AC083E091E062E370E040E050E016
:1003E00076D383E091E0EFDE8091E8008B77809315
:1003F000E80081E08093E9008091E80080FF18C068
:1004000082E292E014DF882399F082E292E062E3D4
:1004100070E040E050E0ADD35C9880ED97E09093C1
:100420000101809300018091E8008E778093E800BD
:1004300008958091DF02813019F0893041F514C0B0
:100440008091DE02813A19F58091E800877F8093E0
:10045000E80089E691E062E370E03BD28091E80039
:100460008B778093E80008958091DE02813279F4E1
:100470008091E800877F8093E80089E691E062E35D
:1004800070E085D28091E8008E778093E80008952F
:100490000F931F9381E061EC42E3A6D0082F82E026
:1004A00060EC42E3A1D010E090E00823192300FFA4
:1004B00002C090E201C090E18BB1909580639823D7
:1004C0009BB91F910F9108950F931F9384B7877F56
:1004D00084BF28E10FB6F89420936000109260006A
:1004E0000FBE8FEC90E09093CD008093CC0086E01F
:1004F0008093CA0082E08093C80009EC10E0F80104
:100500002083539A5A9A8AB180638AB98BB18063E7
:100510008BB92ED188E9F80180831F910F9108953E
:10052000D3DF8BB180638F7E8BB92FB7F89484E5CE
:1005300092E09093D5028093D4029093D702809357
:10054000D6022FBF2FB7F8948BE991E090931C024D
:1005500080931B0290931E0280931D022FBF7894FC
:100560002ADFC5D411DFFCCFDA019330B1F094302B
:1005700028F4913041F0923079F50AC0913211F1AE
:10058000923251F524C0E8EBF0E022E130E028C0DF
:10059000EAECF0E029E230E023C0813049F081301C
:1005A00018F08230C9F40AC0E3EFF0E0849103C090
:1005B000E7EFF0E08491282F30E012C0E1E1F1E0B4
:1005C0008491F9CFECEDF0E029E030E009C0E8E9F2
:1005D000F0E020E230E004C0E0E0F0E020E030E0D5
:1005E000ED93FC93C9010895382F282F2EC0822F38
:1005F0008F708093E900231721F4762F942F50E019
:1006000006C07091EC009091ED005091F00091FFC8
:100610001BC08091EB008E7F8093EB008091ED00FA
:100620008D7F8093ED008091EB0081608093EB00E3
:100630007093EC009093ED005093F0008091EE00E9
:1006400087FD02C080E008952F5F253080F23F7063
:100650003093E90081E008958091DE0288239CF4C4
:1006600004C08091DD028823B9F08091E80082FF08
:10067000F8CF8091E8008B778093E800089580910F
:10068000DD02882349F08091E80080FFF8CF809157
:10069000E8008E778093E80008954091E40050913F
:1006A000E50024E68091EC0080FF24C08091E80002
:1006B00080FD1EC08091DD02882311F482E0089540
:1006C000853011F483E008958091EB0085FF02C02E
:1006D00081E008958091E4009091E50084179507EA
:1006E00009F3222311F484E008952150AC01DACFFC
:1006F00080E008958091E80082FFDCCFF9CF41D0FF
:1007000043D08091D8008F778093D8008091D80013
:1007100080688093D8008091D8008F7D8093D80026
:1007200084E089BD86E089BD09B400FEFDCF10924A
:10073000DD021092D9021092DB021092DA0280E000
:1007400060E042E051DF8091E1008E7F8093E10024
:100750008091E20081608093E2008091E2008860F5
:100760008093E2008091E0008E7F8093E000089506
:10077000E3E6F0E080818E7F808381E08093DC027D
:10078000BECF1092E20008951092E10008951F92EA
:100790000F920FB60F9211242F933F934F935F93B5
:1007A0006F937F938F939F93AF93BF93EF93FF9339
:1007B0008091E10082FF0AC08091E20082FF06C0C2
:1007C0008091E1008B7F8093E10090D38091E100E4
:1007D00080FF17C08091E20080FF13C08091E2008B
:1007E0008E7F8093E2008091E20080618093E2003E
:1007F0008091D80080628093D80019BC1092DD02ED
:10080000DDDC8091E10084FF2DC08091E20084FF57
:1008100029C084E089BD86E089BD09B400FEFDCF12
:100820008091D8008F7D8093D8008091E1008F7EE9
:100830008093E1008091E2008F7E8093E2008091BE
:10084000E20081608093E2008091D902882331F434
:100850008091E30087FD02C081E001C084E08093C5
:10086000DD02A7DC8091E10083FF22C08091E200DD
:1008700083FF1EC08091E100877F8093E10082E0CA
:100880008093DD021092D9028091E1008E7F8093E7
:10089000E1008091E2008E7F8093E2008091E2008F
:1008A00080618093E20080E060E042E09DDE1ED344
:1008B000FF91EF91BF91AF919F918F917F916F9138
:1008C0005F914F913F912F910F900FBE0F901F900E
:1008D00018959C014091E4025091E5024617570794
:1008E00018F4F90190E03DC06115710511F0AB01FC
:1008F000F8CF8091E8008E778093E80040E050E0E8
:10090000F0CF8091DD028823F1F18530F1F1809103
:10091000E80083FF02C081E008958091E80082FD35
:100920002CC08091E80080FF1CC08091F200282F2D
:1009300030E007C081918093F100415050402F5F1B
:100940003F4F4115510519F02830310598F390E0DB
:100950002830310509F491E08091E8008E7780938A
:10096000E8004115510569F6992359F606C08091B2
:10097000DD02882341F0853041F08091E80082FF5C
:10098000F6CF80E0089582E0089583E008959C0109
:100990006115710529F48091E8008B778093E80058
:1009A000F90120C08091DD02882361F1853061F179
:1009B0008091E80083FF02C081E008958091E80003
:1009C00082FFF0CF06C08091F100819361507040AA
:1009D00021F08091F2008823B1F78091E8008B77B5
:1009E0008093E80061157105E9F606C08091DD028B
:1009F000882341F0853041F08091E80080FFF6CFF8
:100A000080E0089582E0089583E008959C0140917C
:100A1000E4025091E5024617570718F4F90190E0F7
:100A200040C06115710511F0AB01F8CF8091E8006D
:100A30008E778093E80040E050E0F0CF8091DD02B7
:100A4000882309F440C0853009F43FC08091E80054
:100A500083FF02C081E008958091E80082FD2DC0EF
:100A60008091E80080FF1DC08091F200282F30E0C7
:100A700008C084918093F1003196415050402F5F1F
:100A80003F4F4115510519F02830310590F390E0A2
:100A90002830310509F491E08091E8008E77809349
:100AA000E8004115510551F6992341F606C08091A1
:100AB000DD02882341F0853041F08091E80082FF1B
:100AC000F6CF80E0089582E0089583E00895BF9214
:100AD000CF92DF92EF92FF920F931F93CF93DF930A
:100AE000182F092F7B016A01D8DDB82E8823B1F5B4
:100AF000812F902F9C01E901C114D10439F0F60136
:100B000080819181E81AF90AC80FD91F00E010E02E
:100B100022C08091E80085FD16C08091E8008B77A7
:100B20008093E800E4D1C114D10449F0F60180813A
:100B30009181800F911F9183808385E010C0ADDD8E
:100B4000882349F00CC08091F10089930894E10852
:100B5000F1080F5F1F4FE114F104D9F68B2DDF91DF
:100B6000CF911F910F91FF90EF90DF90CF90BF90AA
:100B70000895BF92CF92DF92EF92FF920F931F934F
:100B8000CF93DF93182F092F7B016A0186DDB82EE2
:100B90008823B1F5812F902F9C01E901C114D10464
:100BA00039F0F60180819181E81AF90AC80FD91F3E
:100BB00000E010E022C08091E80085FD16C0809121
:100BC000E8008E778093E80092D1C114D10449F0F7
:100BD000F60180819181800F911F9183808385E050
:100BE00010C05BDD882349F00CC089918093F1002F
:100BF0000894E108F1080F5F1F4FE114F104D9F6E2
:100C00008B2DDF91CF911F910F91FF90EF90DF908F
:100C1000CF90BF9008950F931F93DF93CF93CDB7DD
:100C2000DEB7AC970FB6F894DEBF0FBECDBFEEEDCA
:100C3000F2E08091F100819322E0E63EF207C9F7ED
:100C4000F8DB8091E80083FF38C18091DE023091AB
:100C5000DF02353009F487C0363040F43130C9F155
:100C6000313070F0333009F028C133C0383009F426
:100C7000F6C0393009F405C1363009F01EC197C0FD
:100C8000803821F0823809F018C108C09091DA024A
:100C90008091DB02882399F0926011C08091E2027A
:100CA0008F708093E9008091EB0090E025E09695AD
:100CB00087952A95E1F7982F91701092E90080911D
:100CC000E800877F8093E8009093F1001092F10094
:100CD000D1C0882319F0823009F0EFC090E08F7105
:100CE0009070009721F0029709F0E7C00CC0809146
:100CF000E002813009F0E1C01092DB02333069F587
:100D00008093DB022AC08091E002882331F5209194
:100D1000E2022F7009F4D1C02093E9008091EB002A
:100D200080FF1BC0333021F48091EB00806213C040
:100D30008091EB0080618093EB0081E090E002C045
:100D4000880F991F2A95E2F78093EA001092EA0033
:100D50008091EB0088608093EB001092E900809115
:100D6000E800877F8AC0882309F0A7C01091E002BD
:100D70001F770FB7F8948091E800877F8093E80091
:100D80006BDC8091E80080FFFCCF8091E3008078ED
:100D9000812B8093E30080688093E300112311F49A
:100DA00082E001C083E08093DD020FBF86C08058DF
:100DB000823008F082C08091E0029091E10223E04D
:100DC0008C3D920709F033C083E08C838AE28B83E9
:100DD0007FB7F894DE0115966EE040E050E011E236
:100DE000E62FF0E010935700849140FF03C08295F6
:100DF0008F706F5F8F70282F30E08A3018F0C90134
:100E0000C79602C0C901C0968D939D934F5F5F4FF7
:100E10004431510529F77FBF8091E800877F809397
:100E2000E800CE0103966AE270E053DD12C06091E3
:100E3000E202AE014F5F5F4F97DBBC01009709F400
:100E40003CC08091E800877F8093E80089819A8187
:100E5000DDDD8091E8008B778093E8002EC080383C
:100E600061F58091E800877F8093E8008091D90246
:100E70008093F1008091E8008E778093E800ECDBAE
:100E80001CC08823D1F49091E0029230B0F480919C
:100E9000E800877F8093E8009093D902DDDB8091A2
:100EA000D902882331F48091E30087FD02C081E0FC
:100EB00001C084E08093DD02EBDA8091E80083FFDB
:100EC0000AC08091EB0080628093EB008091E80083
:100ED000877F8093E800AC960FB6F894DEBF0FBE14
:100EE000CDBFCF91DF911F910F91089508951F936A
:100EF0008091DD02882371F01091E9008091EC006F
:100F00001092E9008091E80083FF01C084DE1F7029
:0C0F10001093E9001F910895F894FFCFA2
:00000001FF
